:020000000145B8
:03001B0002007070
:10004500D295758160758910758D3C758BB075A8D5
:1000550088D28ED2D5753914753818753706753628
:100065000712010A1201B6516D80F6C0E0C0D075C5
:100075008D3C758BB00FBF14767F000531E531B42B
:100085003C7E7531000532E532B43C7475320005AD
:1000950033E533B4186A7533000536E537048380D4
:1000A5000C312831303130313130313031C3953672
:1000B500504EE537B4023AE538853882853983E50F
:1000C5008375F00484E5F0B40027E58275F0648457
:1000D500E5F0B4001275F0C825F075F0C825F0E517
:1000E5008284E5F0B4000AE5366429601370028065
:1000F5000F7536010537E537B40C0575370005383A
:10010500D0D0D0E032E53AB400129003180534E5BA
:1001150030B4010AC3E534B48000402221B5E5338B
:1001250075F00A8493F58075A0FFD535FD758000BF
:10013500E5F093F58075A0FBD535FD7580007580DC
:100145004075A0F7D535FD758000E530B40208C3CC
:10015500E534B480004020E53275F00A8493F580DB
:1001650075A0F3D535FD758000E5F093F58075A094
:10017500EFD535FD75800075804075A0EBD535FD53
:10018500758000E530B40308C3E534B48000402031
:10019500E53175F00A8493F58075A0E7D535FD75D1
:0501A5008000E5F0936D
:1001AA00F58075A0E3D535FD75800022E53AB401E6
:1001BA0003203A02416C9003180534E530B4010873
:1001CA00C3E534B480004040E53975F00A8493F5FC
:1001DA008075A0FFD535FD758000E5F093F5807533
:1001EA00A0FBD535FD758000E53875F00A8493F5D6
:1001FA008075A0F7D535FD758000E5F093F580751B
:10020A00A0F3D535FD758000E530B40208C3E534A6
:10021A00B480004020E53775F00A8493F58075A014
:10022A00EFD535FD758000E5F093F58075A0EBD527
:10023A0035FD758000E530B40308C3E534B48000A9
:10024A004020E53675F00A8493F58075A0E7D53528
:10025A00FD758000E5F093F58075A0E3D535FD7551
:10026A0080002220B11230B1FDC28E0530E530B4D3
:10027A00041475300102031720B20C30B2FD753038
:10028A0000D28E02031722E53060FB20B07230B034
:10029A00FDE53AB40102802FE530B4010C0533E5DF
:1002AA0033B418697533008064B4020C0532E53240
:1002BA00B43C5A7532008055B403520531E531B465
:1002CA003C4B7531008046E530B401160538E538F7
:1002DA00B4633A7538000539E539B46330753900C5
:1002EA00802BB4020C0537E537B40C217537018031
:1002FA001CB403190536E536B41F12753601800D94
:03030A0020B30A13
:10030D0030B3FDB23A7530008000223F065B4F6678
:05031D006D7D077F6FFC
:00000001FF
